:100000000C9446000C9465000C9465000C946500FB
:100010000C9465000C9465000C9465000C946500CC
:100020000C9465000C9465000C9465000C946500BC
:100030000C9465000C9465000C9465000C946500AC
:100040000C9465000C9465000C9465000C9465009C
:100050000C9465000C9465000C9465000C9465008C
:100060000C9465000C9465000C9465000C9465007C
:100070000C9465000C9465000C9465000C9465006C
:100080000C9465000C9465000C94650011241FBE4F
:10009000CFEFD0E1DEBFCDBF11E0A0E0B1E0ECEAF0
:1000A000FAE000E00BBF02C007900D92AC32B1073E
:1000B000D9F711E0ACE2B1E001C01D92A933B1075C
:1000C000E1F70E9419010C9454050C9400000F9361
:1000D00005B30F7005BB04B3006F04BB03B1006729
:1000E00003B902B10F7802B90F910895F0DF1092B1
:1000F000000108950F931F93EF93FF933F935F9336
:1001000099278827E2E0F1E000910101002301F046
:1001100005B3006F05BB11911115E9F005B31095FA
:10012000012305BB000031B1307705B3006F05BB7B
:1001300053E0032F007451F4808103E2081729F47F
:100140000091010100950093010193950191330FF6
:100150005A9579F7E0CF5F913F91FF91EF911F9111
:100160000F9108950F9305B30F7005BB000031B1D7
:100170003077303749F4009100010F3FC1F71092FA
:10018000000180E13DD1F3CF009100010F3F79F3F1
:1001900080E136D1AFDF882331F30FEF0093000108
:1001A0000F91089580919B0087FFFCCF80919C0068
:1001B0000895982F80919B0085FFFCCF90939C0021
:1001C000089580919B0087FFFCCF80919C0090E078
:1001D00008950E94B20090E008951F93182F0E9486
:1001E0006501812F90E00E94D9001F9108951F930F
:1001F000182F0E946501812F90E00E94D90080E0B5
:1002000090E01F910895F89483E390E00E945A01D2
:100210000E94760078940E94A60187EF90E060E04B
:1002200070E00E94E00381E080932E0110920101B2
:100230000895EF92FF921F93DF93CF930F92CDB764
:10024000DEB70E94030110929B0088E980939A0018
:1002500086E080939D001092980087E68093990035
:1002600081E061E00E94E20186E191E00E94D60116
:1002700082E061E00E94E2017E010894E11CF11C31
:10028000C7010E947F030E94B20089830E94ED0093
:1002900080919B0087FFFCCF10919C001D3081F363
:1002A000812F0E94ED00812F0E946501812F0E9405
:1002B0007B01E6CF0F939093900089B908E10AB9CA
:1002C00006E0009395000F9108955D9BFECF8CB9D9
:1002D00008955F9BFECF8CB108950F931F930BB3CE
:1002E0001EEF109501230BBB0EEF1AB3012B0ABBB7
:1002F0001F910F9108958F930F93082F807F826035
:100300008BBB1BD00295007F02600BBB16D088E22E
:1003100085D00F918F9108958F930F93082F807F31
:1003200080608BBB0AD00295007F00600BBB05D0BC
:1003300088E274D00F918F910895DB9A000000003D
:100340000000000000000000DB9808950F938F93D9
:10035000C4DF8EE155D000E30BBBEFDF82E050D06D
:10036000ECDF82E04DD0E9DF82E04AD000E20BBB57
:10037000E4DF82E045D088E2CFDF8CE0CDDF86E0AD
:10038000CBDF82E03DD003D08F910F9108958F9302
:1003900081E0C2DF82E034D002D08F9108958F9344
:1003A00082E0BADF82E02CD08F910895EF93FF9323
:1003B000E82FF92F8191882311F09DDFFBCFFF916A
:1003C000EF9108950F93813011F400E803C082305B
:1003D00029F400EC060F0A95802F9EDF0F910895F7
:1003E0000F93813011F400E803C0823039F400EC3F
:1003F000060F0A95802F90DF842F7DDF0F910895DF
:100400000F93082F8AEF0AD08AEF08D08AEF06D020
:100410008AEF04D00A95B1F70F9108958F938F93C7
:100420008F918F938F918F938F9100008A95B9F759
:100430008F910895982F81568A3108F49052892F10
:100440000895FC0107C0892F81568A3110F490521B
:100450009083319690819923B1F70895CF93DF93DC
:10046000EC01C031D10558F0CE0124E09695879576
:100470002A95E1F70E942E02CF70D070F2CFCA30D9
:10048000D10518F49E01205D02C09E01295C822FD7
:100490000E94ED00DF91CF910895CF93DF93EC019F
:1004A0008A30910568F06AE070E00E94CC03CB01CD
:1004B0000E944D02CE016AE070E00E94CC03EC0184
:1004C0009E01205D822F0E94ED00DF91CF91089563
:1004D000CF93DF93EC0197FF06C0D095C195DF4F16
:1004E0008DE20E94ED00CE010E944D02DF91CF917E
:1004F0000895CF93DF93EC0102C00E94ED00899133
:100500008823D9F7DF91CF910895EF92FF920F934F
:100510001F93CF93DF938C017B01C0E0D0E011C02B
:10052000883031F4209769F001501040219707C0BE
:10053000CE15DF0530F4F80181938F0121960E94DA
:10054000ED000E94E1008D3059F7F8011082DF9133
:10055000CF911F910F91FF90EF9008950F931F93EC
:10056000CF93DF93C0E0D0E000E010E02CC0822FFA
:1005700080538A3020F4822F90E0C09707C0822FEA
:100580008154863088F4822F90E0C797803191059E
:1005900058F444E0CC0FDD1F4A95E1F7C80FD91F8E
:1005A0000F5F1F4F822F0DC0283069F40115110510
:1005B00051F034E0D695C7953A95E1F701501040D7
:1005C00088E00E94ED000E94E100282F81568A31C8
:1005D00008F420522D3059F6CE01DF91CF911F91B2
:1005E0000F910895EF92FF920F931F93CF93DF9394
:1005F0007C010E94E100282F8D3231F48DE20E94AF
:10060000ED000FEF1FEF0AC08B3219F001E010E090
:1006100008C08BE20E94ED0001E010E00E94E100C2
:10062000282FC0E0D0E013C0CE0163E0880F991FEF
:100630006A95E1F7CC0FDD1FC80FD91FC20FD11D7E
:10064000E097822F0E94ED000E94E100282F822F68
:1006500080538A3048F3F7012083C09F9001C19FE7
:10066000300DD09F300D1124C901DF91CF911F9122
:100670000F91FF90EF9008950F931F93CF93DF9307
:100680000E94E100282F8D3231F48DE20E94ED00AE
:100690000FEF1FEF0AC08B3219F001E010E008C025
:1006A0008BE20E94ED0001E010E00E94E100282FA3
:1006B000C0E0D0E013C0CE01E3E0880F991FEA95B7
:1006C000E1F7CC0FDD1FC80FD91FC20FD11DE09776
:1006D000822F0E94ED000E94E100282F822F80537C
:1006E0008A3048F3C09F9001C19F300DD09F300DDC
:1006F0001124C901DF91CF911F910F9108950F939C
:100700001F93CF93DF938C010E94E100282FC0E05C
:10071000D0E013C0CE01A3E0880F991FAA95E1F79E
:10072000CC0FDD1FC80FD91FC20FD11DE097822F3C
:100730000E94ED000E94E100282F822F80538A3012
:1007400048F3F8012083CE01DF91CF911F910F91E3
:100750000895CF93DF930E94E100282FC0E0D0E0FE
:1007600013C0CE0133E0880F991F3A95E1F7CC0F03
:10077000DD1FC80FD91FC20FD11DE097822F0E9425
:10078000ED000E94E100282F822F80538A3048F329
:10079000CE01DF91CF910895AA1BBB1B51E107C089
:1007A000AA1FBB1FA617B70710F0A61BB70B881F01
:1007B000991F5A95A9F780959095BC01CD01089590
:1007C0000F931F93CF93DF938C01EB01009731F4CC
:1007D0006115710519F420E030E038C081E090E047
:1007E0006EE070E00E942C04FC019C01009771F106
:1007F00080E88383209771F0D387C28781E8838361
:1008000080912F0190913001892B21F4F0933001D8
:10081000E0932F0101151105C9F01187008783812D
:10082000826083838091310190913201892B71F430
:10083000F0933201E09331018091330190913401C2
:10084000892B21F4F0933401E0933301C901DF9146
:10085000CF911F910F9108950F931F93CF93DF9323
:10086000689F8001699F100D789F100D1124C801A9
:100870000E944804EC01009729F060E070E0A801B4
:100880000E944D05CE01DF91CF911F910F910895E8
:10089000CF93DF93BC018230910510F462E070E0E9
:1008A000A0913701B0913801ED01E0E0F0E040E0C7
:1008B00050E021C0888199818617970769F48A8161
:1008C0009B81309719F09383828304C09093380101
:1008D00080933701FE0134C06817790738F4411559
:1008E000510519F08417950708F4AC01FE018A81BF
:1008F0009B819C01E9012097E9F641155105A9F179
:10090000CA01861B970B049708F4BA01E0E0F0E0F7
:100910002AC08D919C91119784179507F9F464175B
:10092000750781F412968D919C911397309719F069
:100930009383828304C09093380180933701FD0133
:1009400032964FC0CA01861B970BFD01E80FF91FB5
:100950006193719302978D939C9343C0FD018281B3
:1009600093819C01D9011097A1F680913501909156
:100970003601892B41F480912801909129019093AF
:1009800036018093350140912A0150912B01411588
:10099000510541F44DB75EB7809126019091270132
:1009A000481B590B2091350130913601241735072A
:1009B000B0F4CA01821B930B8617970780F0AB0136
:1009C0004E5F5F4F8417950750F0420F531F5093AF
:1009D000360140933501F9016193719302C0E0E063
:1009E000F0E0CF01DF91CF910895CF93DF9300978F
:1009F00009F450C0EC0122971B821A82A0913701A2
:100A0000B0913801109709F140E050E0AC17BD07F4
:100A100008F1BB83AA83FE0121913191E20FF31FFC
:100A2000AE17BF0779F48D919C911197280F391F4C
:100A30002E5F3F4F3983288312968D919C91139797
:100A40009B838A834115510571F4D0933801C0937B
:100A5000370120C012968D919C911397AD0100979C
:100A600011F0DC01D3CFFA01D383C28321913191FC
:100A7000E20FF31FCE17DF0769F488819981280FF1
:100A8000391F2E5F3F4FFA01318320838A819B817A
:100A900093838283DF91CF910895DC0101C06D9330
:0C0AA00041505040E0F70895F894FFCF5B
:100AAC000000103332312036353440393837803D30
:100ABC00302A000000004B4855204545204A756EF1
:0C0ACC00796F756E670020003901000092
:00000001FF
